{
  "_format": "hh-sol-artifact-1",
  "contractName": "AnchorRegistry",
  "sourceName": "contracts/AnchorRegistry.sol",
  "abi": [
    {
      "anonymous": false,
      "inputs": [
        {
          "indexed": false,
          "internalType": "bytes32",
          "name": "receiptHash",
          "type": "bytes32"
        },
        {
          "indexed": false,
          "internalType": "bytes32",
          "name": "anchorId",
          "type": "bytes32"
        },
        {
          "indexed": false,
          "internalType": "address",
          "name": "sender",
          "type": "address"
        },
        {
          "indexed": false,
          "internalType": "uint256",
          "name": "timestamp",
          "type": "uint256"
        }
      ],
      "name": "Anchored",
      "type": "event"
    },
    {
      "inputs": [
        {
          "internalType": "bytes32",
          "name": "receiptHash",
          "type": "bytes32"
        }
      ],
      "name": "anchor",
      "outputs": [
        {
          "internalType": "bytes32",
          "name": "anchorId",
          "type": "bytes32"
        }
      ],
      "stateMutability": "nonpayable",
      "type": "function"
    },
    {
      "inputs": [
        {
          "internalType": "bytes32",
          "name": "receiptHash",
          "type": "bytes32"
        }
      ],
      "name": "isAnchored",
      "outputs": [
        {
          "internalType": "bool",
          "name": "",
          "type": "bool"
        }
      ],
      "stateMutability": "view",
      "type": "function"
    }
  ],
  "bytecode": "0x608060405234801561001057600080fd5b506101e2806100206000396000f3fe608060405234801561001057600080fd5b50600436106100365760003560e01c80634f0b58011461003b578063eecdf92714610073575b600080fd5b61005e610049366004610193565b60009081526020819052604090205460ff1690565b60405190151581526020015b60405180910390f35b610086610081366004610193565b610094565b60405190815260200161006a565b60008181526020819052604081205460ff16156100ea5760405162461bcd60e51b815260206004820152601060248201526f105b1c9958591e48185b98da1bdc995960821b604482015260640160405180910390fd5b60008281526020818152604091829020805460ff1916600117905581519081018490523360601b6bffffffffffffffffffffffff19169181019190915243605482015260740160408051601f198184030181528282528051602091820120858452908301819052339183019190915242606083015291507fef9ad88ed81d42bc0ea6682949bb2f6da6a414e7221999a4c5bcbd5b211081519060800160405180910390a1919050565b6000602082840312156101a557600080fd5b503591905056fea2646970667358221220c2b5fcc1b963f77773695e9c721631df47009a67ed34870b9182691559f44d3964736f6c63430008180033",
  "linkReferences": {},
  "deployedLinkReferences": {}
}